:020000040000fa
:080000000002040000000000f2
:020000040000fa
:040008005a05000095
:020000040000fa
:04000c00f0020000fe
:020000040000fa
:0400100032030000b7
:020000040000fa
:0400140010030000d5
:020000040000fa
:04001800520300008f
:020000040000fa
:04001c005a05000081
:020000040000fa
:040020005a0500007d
:020000040000fa
:040024005a05000079
:020000040000fa
:040028005a05000075
:020000040000fa
:04002c005a05000071
:020000040000fa
:040030005a0500006d
:020000040000fa
:040034002a05000099
:020000040000fa
:040038005a05000065
:020000040000fa
:04003c005a05000061
:020000040000fa
:040040005a0500005d
:020000040000fa
:040044005a05000059
:020000040000fa
:040048005a05000055
:020000040000fa
:04004c005a05000051
:020000040000fa
:040050005a0500004d
:020000040000fa
:04005400ae040000f6
:020000040000fa
:04005800520400004e
:020000040000fa
:04005c005a05000041
:020000040000fa
:040060005a0500003d
:020000040000fa
:040064005a05000039
:020000040000fa
:040068005a05000035
:020000040000fa
:04006c005a05000031
:020000040000fa
:040070005a0500002d
:020000040000fa
:040074005a05000029
:020000040000fa
:040078005a05000025
:020000040000fa
:04007c005a05000021
:020000040000fa
:040080005a0500001d
:020000040000fa
:040084005a05000019
:020000040000fa
:040088005a05000015
:020000040000fa
:04008c005a05000011
:020000040000fa
:040090005a0500000d
:020000040000fa
:040094005a05000009
:020000040000fa
:040098005a05000005
:020000040000fa
:04009c005a05000001
:020000040000fa
:0400a000ce0300008b
:020000040000fa
:0400a40072030000e3
:020000040000fa
:0400a8005a050000f5
:020000040000fa
:0400ac005a050000f1
:020000040000fa
:0400b0005a050000ed
:020000040000fa
:0400b4005a050000e9
:020000040000fa
:0400b8005a050000e5
:020000040000fa
:0400bc005a050000e1
:020000040000fa
:0400c0005a050000dd
:020000040000fa
:0400c4005a050000d9
:020000040000fa
:0400c8005a050000d5
:020000040000fa
:0400cc005a050000d1
:020000040000fa
:0400d0005a050000cd
:020000040000fa
:0400d4005a050000c9
:020000040000fa
:0400d8005a050000c5
:020000040000fa
:0400dc005a050000c1
:020000040000fa
:0400e0005a050000bd
:020000040000fa
:0400e4005a050000b9
:020000040000fa
:0400e8005a050000b5
:020000040000fa
:0400ec005a050000b1
:020000040000fa
:0400f0005a050000ad
:020000040000fa
:0400f4005a050000a9
:020000040000fa
:0400f8005a050000a5
:020000040000fa
:0400fc005a050000a1
:020000040000fa
:040100005a0500009c
:020000040000fa
:040104005a05000098
:020000040000fa
:040108005a05000094
:020000040000fa
:04010c005a05000090
:020000040000fa
:040110005a0500008c
:020000040000fa
:040114005a05000088
:020000040000fa
:040118005a05000084
:020000040000fa
:04011c005a05000080
:020000040000fa
:040120005a0500007c
:020000040000fa
:040124005a05000078
:020000040000fa
:040128005a05000074
:020000040000fa
:04012c0014050000b6
:020000040000fa
:040130003c0400008b
:020000040000fa
:040134005a05000068
:020000040000fa
:040138005a05000064
:020000040000fa
:04013c005a05000060
:020000040000fa
:040140005a0500005c
:020000040000fa
:040144005a05000058
:020000040000fa
:040148005a05000054
:020000040000fa
:04014c005a05000050
:020000040000fa
:040150005a0500004c
:020000040000fa
:040154005a05000048
:020000040000fa
:040158005a05000044
:020000040000fa
:04015c005a05000040
:020000040000fa
:040160005a0500003c
:020000040000fa
:040164005a05000038
:020000040000fa
:040168005a05000034
:020000040000fa
:040208005a05000093
:020000040000fa
:04020c00f0020000fc
:020000040000fa
:0402100032030000b5
:020000040000fa
:0402140010030000d3
:020000040000fa
:04021800520300008d
:020000040000fa
:04021c005a0500007f
:020000040000fa
:040220005a0500007b
:020000040000fa
:040224005a05000077
:020000040000fa
:040228005a05000073
:020000040000fa
:04022c005a0500006f
:020000040000fa
:040230005a0500006b
:020000040000fa
:040234002a05000097
:020000040000fa
:040238005a05000063
:020000040000fa
:04023c005a0500005f
:020000040000fa
:040240005a0500005b
:020000040000fa
:040244005a05000057
:020000040000fa
:040248005a05000053
:020000040000fa
:04024c005a0500004f
:020000040000fa
:040250005a0500004b
:020000040000fa
:04025400ae040000f4
:020000040000fa
:04025800520400004c
:020000040000fa
:04025c005a0500003f
:020000040000fa
:040260005a0500003b
:020000040000fa
:040264005a05000037
:020000040000fa
:040268005a05000033
:020000040000fa
:04026c005a0500002f
:020000040000fa
:040270005a0500002b
:020000040000fa
:040274005a05000027
:020000040000fa
:040278005a05000023
:020000040000fa
:04027c005a0500001f
:020000040000fa
:040280005a0500001b
:020000040000fa
:040284005a05000017
:020000040000fa
:040288005a05000013
:020000040000fa
:04028c005a0500000f
:020000040000fa
:040290005a0500000b
:020000040000fa
:040294005a05000007
:020000040000fa
:040298005a05000003
:020000040000fa
:04029c005a050000ff
:020000040000fa
:0402a000ce03000089
:020000040000fa
:0402a40072030000e1
:020000040000fa
:0402a8005a050000f3
:020000040000fa
:0402ac005a050000ef
:020000040000fa
:0402b0005a050000eb
:020000040000fa
:0402b4005a050000e7
:020000040000fa
:0402b8005a050000e3
:020000040000fa
:0402bc005a050000df
:020000040000fa
:0402c0005a050000db
:020000040000fa
:0402c4005a050000d7
:020000040000fa
:0402c8005a050000d3
:020000040000fa
:0402cc005a050000cf
:020000040000fa
:0402d0005a050000cb
:020000040000fa
:0402d4005a050000c7
:020000040000fa
:0402d8005a050000c3
:020000040000fa
:0402dc005a050000bf
:020000040000fa
:0402e0005a050000bb
:020000040000fa
:0402e4005a050000b7
:020000040000fa
:0402e8005a050000b3
:020000040000fa
:0402ec005a050000af
:020000040000fa
:0402f0005a050000ab
:020000040000fa
:0402f4005a050000a7
:020000040000fa
:0402f8005a050000a3
:020000040000fa
:0402fc005a0500009f
:020000040000fa
:040300005a0500009a
:020000040000fa
:040304005a05000096
:020000040000fa
:040308005a05000092
:020000040000fa
:04030c005a0500008e
:020000040000fa
:040310005a0500008a
:020000040000fa
:040314005a05000086
:020000040000fa
:040318005a05000082
:020000040000fa
:04031c005a0500007e
:020000040000fa
:040320005a0500007a
:020000040000fa
:040324005a05000076
:020000040000fa
:040328005a05000072
:020000040000fa
:04032c0014050000b4
:020000040000fa
:040330003c04000089
:020000040000fa
:040334005a05000066
:020000040000fa
:040338005a05000062
:020000040000fa
:04033c005a0500005e
:020000040000fa
:040340005a0500005a
:020000040000fa
:040344005a05000056
:020000040000fa
:040348005a05000052
:020000040000fa
:04034c005a0500004e
:020000040000fa
:040350005a0500004a
:020000040000fa
:040354005a05000046
:020000040000fa
:040358005a05000042
:020000040000fa
:04035c005a0500003e
:020000040000fa
:040360005a0500003a
:020000040000fa
:040364005a05000036
:020000040000fa
:040368005a05000032
:020000040000fa
:10040000afab20000eff20000e01880000000000ae
:10041000000020000000e000020032000001200087
:100420002002880014000700190207000000e00005
:1004300003003a00a0422200010020000200370021
:100440000000200001002000810f70000100320038
:1004500014000700000020000000e000020032004d
:100460000000020000000000cc2502000000000097
:100470000040da000000fe004440a900e02e200009
:100480000000e0000300320000002000a00188000e
:100490004440a800000006008a1f78008b1f7800e7
:1004a0000000060091018800800478000000eb0045
:1004b0001a003700e284440032a0b4009905ba0063
:1004c000e284440032a0b4009906ba00e2844400f9
:1004d00032a0b4000006eb00476fde00fd07b2005b
:1004e000636ce10003003a00ebff07000000eb0043
:1004f0000a003700606ce10004003a00005deb0088
:100500008b05e900fdff3e00040037006168e10053
:10051000010032000086eb000b00070019c7ba008b
:100520001905ba000e04e00003003a000a00e000da
:10053000e0ff3a0000000600fe07b2009e018800be
:100540008a047800f5ff3700395dba008b05e900b1
:100550000c003200295dba008b05e900080032006a
:100560000c00e00003003a00e284440032a0b40032
:10057000f5ff370019ddba008b05e900faff3a00f4
:100580008904e800e184440032a0b40000000600c1
:10059000000000000000000000000000000000005b
:1005a000000000000000000000000000000000004b
:1005b000000000000000000000000000000000003b
:1005c000000000000000000000000000000000002b
:1005d000000000000000000000000000000000001b
:1005e0003600f800809fbe00829fbe00849fbe0040
:1005f000869fbe000000fa008020a9000000eb00ea
:10060000041207000080fa004f03be004f02be0034
:100610004f01be004f00be003600f900004006004a
:100620003600f800809fbe00829fbe00849fbe00ff
:10063000869fbe000000fa00fb1107008040a90061
:1006400010002000f31107000080fa004f03be00e5
:100650004f02be004f01be004f00be003600f90041
:10066000004006003600f800809fbe00829fbe005a
:10067000849fbe00869fbe000000fa008060a90033
:1006800020002000e31107000080fa004f03be00a5
:100690004f02be004f01be004f00be003600f90001
:1006a000004006003600f800809fbe00829fbe001a
:1006b000849fbe00869fbe000000fa008080a900d3
:1006c00030002000d31107000080fa004f03be0065
:1006d0004f02be004f01be004f00be003600f900c1
:1006e000004006003600f800809fbe00829fbe00da
:1006f000849fbe00869fbe000000fa005049800023
:10070000000001003140800020408000808f5000b8
:1007100002003a0097e0a9001900370087e0a9001d
:100720001000370030408000904078008180fb004e
:10073000a11188000000e8003040880031408000ae
:10074000a0822000808f500002003a00908020009c
:10075000304088003140800020408000808f500071
:10076000060032009111800000202000008060000f
:100770000000e000ebff3200010037000000000045
:100780000080fa004f03be004f02be004f01be00c2
:100790004f00be003600f900004006003600f800a9
:1007a000809fbe00829fbe00849fbe00869fbe00c9
:1007b0000000fa0087c0a900604980000000010025
:1007c0002200370000408000b11180008140780095
:1007d0000148780000408000104078000080fb0055
:1007e000201188000140800090922000808f5000ee
:1007f00009003200004080008000e80010408000c6
:10080000808f500004003200004080000000e800ab
:10081000004088000d0037000140800090922000c9
:10082000808f500007003a0011408000a082200015
:10083000808f500003003200a0822000004088001a
:100840000200370010c0b30008e8b7009011800024
:10085000610060000000e000daff3a000080fa006a
:100860004f03be004f02be004f01be004f00be004e
:100870003600f90000400600801f78000000fa00f2
:1008800090118000620060000000e0000100320072
:100890003222a9008c40a9000080fa004f007800a5
:1008a000004006003600f800809fbe00829fbe0018
:1008b000849fbe00869fbe000000fa00d04b8000df
:1008c00000000100a149800090498000808f500005
:1008d00002003a009580a900190037008580a90020
:1008e00010003700a0498000904078008180fb0014
:1008f000211188000000e800a0498800a14980007b
:1009000080952000808f500002003a0070932000f4
:10091000a0498800a149800090498000808f500044
:1009200006003200111180000020200000806000cd
:100930000000e000ebff3200010037000000000083
:100940000080fa004f03be004f02be004f01be0000
:100950004f00be003600f900004006003600f800e7
:10096000809fbe00829fbe00849fbe00869fbe0007
:100970000000fa00e04b8000000001008560a90043
:100980001e003700704980003111800081407800de
:10099000014878007149800080972000808f5000c6
:1009a00009003200704980008000e8008049800022
:1009b000808f500004003200704980000000e80081
:1009c000704988000d003700714980008097200031
:1009d000808f500007003a008149800080952000f8
:1009e000808f5000030032008095200070498800fd
:1009f0000200370010c0b30036e9b70010118000c4
:100a0000610060000000e000deff3a000080fa00b4
:100a10004f03be004f02be004f01be004f00be009c
:100a20003600f90000400600801f78000000fa0040
:100a300010118000620060000000e0000100320040
:100a40002222a9008c20a9000080fa004f00780023
:100a5000004006003600f800809fbe00829fbe0066
:100a6000849fbe00869fbe000000fa00804d80007b
:100a70000000e00002003200804d80000000010014
:100a8000b3c9bf000040e800b3e9b70010c0b3002d
:100a9000b2e9b7008460a9000080fa004f03be00ed
:100aa0004f02be004f01be004f00be003600f900ed
:100ab000004006000040da000000fe000a00fa00d4
:100ac00011002000b1bf9f00c0bf9f006a80570087
:100ad000a40607004fb897000080fa000000060047
:100ae0000a00fa00e20f500034003e00205480005b
:100af000e10f500003003200e20f500011003a00f5
:100b00000c003700032220000300e00001003a003f
:100b10000040da002002e200020035002822ef0047
:100b200021e2a8002342ab000d003a002342a800b6
:100b30000b003700032320000300e00001003a000f
:100b40000040da003002e200020035003822ef00f7
:100b500031e2a8003342ab0001003a003342a80062
:100b6000820178000b0037003102fb00e10f5000da
:100b700004003a002322ab00feff3a002411880053
:100b8000030037003322ab00feff3a00a4118800b7
:100b90008301e9000300e000f3ff3a00e10f500099
:100ba00003003a002302ab00feff32000b003700c7
:100bb0003302ab00feff3200080037003300200094
:100bc000b3bf9f00c0bf9f00d1bf9f00e2bf9f0087
:100bd0006a805700650607006fb997000200780029
:100be0000080fa00000006000a00fa005100200010
:100bf000b1bf9f00c0bf9f006a8057005d0607001d
:100c00005fb897000080fa0000000600889fbe00d1
:100c100080047800305480000000e00004003a00b6
:100c20000e0007000084eb000000e0000800350023
:100c3000385480000900e00005003200090044003b
:100c4000060007000000e00001003d000084eb000a
:100c5000080078004f04be00000006008000780005
:100c60000100e00003003a0080a820003054880012
:100c7000000005000080eb00a2ab2000828f500036
:100c800002003e00315488000000eb000000060026
:100c9000000005008001780002003700b15978009b
:100ca0000201e9000200e000fcff3a00000006003b
:100cb000020037000304e000060032000001780063
:100cc00002007800b041780081cf5100f9ff3a006e
:100cd000010037000001eb00020078000000060070
:100ce00080007800010178003104e000fdff3a0047
:100cf0000000510000000600889fbe0081047800bb
:100d0000194478000804e0000e00320006003700a5
:100d1000d24178000304e0000a003200d1cf110074
:100d2000fbff32000000e8008800fb00e0ff070046
:100d30000000e00003003200090178008000780024
:100d4000f3ff37004f04be0000000600889fbe007e
:100d5000800478000203be00010478006149b800f5
:100d6000898fd2008381d200080278000600be007d
:100d700002060700088044004f04be000000060081
:100d8000881f78000204780008017800c1ff07007e
:100d9000080040004f047800000006000000fa0040
:100da000881f7800000478006a825700bfb9970056
:100db00008017800616a2000006c2000160007001e
:100dc0000000e000020035008040eb000174780074
:100dd0004f0478000080fa0000000600889fbe00e3
:100de000000478000203be00810478000802780045
:100df00089017800120020000600be00e30307000e
:100e0000890f5000010032000004eb000800780058
:100e10004f04be00000006006800fa00889fbe0074
:100e20008a9fbe0080047800010478008205780063
:100e3000030578008400780000f92f000f004000bf
:100e4000d0030700d98f9f00fb8f9f000000eb00ad
:100e5000a09f9f00e88f9f009a84fb000904fb007d
:100e60008904ea00cf4cde0050022000800f5400bd
:100e70000d003200e18f54000b003a0009017800a8
:100e80008a0078007f889700df89970003000100bf
:100e9000f08f9f000000e000950032002f9897002f
:100ea0000000e800a09f9f000905450050022000b7
:100eb000800f5400040032000800e000e6ff3a0012
:100ec0002f9897008b0037000000eb00809f9f0059
:100ed000f0979f00e0979f00d0979f00c0979f00da
:100ee000b0979f000700370061a720000100500065
:100ef00000004000a1a6200061007800cf98970074
:100f000001007000c09f9f000a0478000805780067
:100f1000ba4478008900fb0060a7200064ff070046
:100f20000000e000f0ff3a00a1c2b30081cf5400fe
:100f30000e003a008f8897000180e900808f9f00a3
:100f400010007800b09f9f000000e00005003d0009
:100f50000000ea00b09f9f004f9897000020a0007b
:100f6000c09f9f000804e80010003700b09f9f005a
:100f7000880078000000eb0005003700f3ff270031
:100f8000830f5000020032006a02b90004004100e1
:100f900001047800880078003101fb000203b100f1
:100fa000e90f5100f5ff3600b09f9f00e0c2b3008b
:100fb000984f1000020032000080eb00190037004b
:100fc000a0c2b300d84f100007003a008f889700e6
:100fd0000180e900808f9f0010007800909f9f00a3
:100fe0000804e800100037000000eb00909f9f000d
:100ff0008800780005003700f3ff2700830f5000ba
:10100000020032006a02b9000400410001047800c5
:10101000880078003101fb000203b100e90f5100a4
:10102000f5ff3600909f9f00984478008900fb00f0
:1010300020a620001eff07000000e0000200320092
:101040000804e800010037008044eb00a97f9f00fe
:1010500080c6b30080cf540006003a0098cf140039
:1010600010003a0066405000a07f9f000804e8008e
:101070000c003700c0c6b30080cf540009003a000e
:1010800098cf140007003a0067404000d84f100086
:1010900002003a006e4050000100370010c7b30054
:1010a000a07f9f001801fb00c3fb2f008f81410030
:1010b00001f92f008f80400020f92f000f00400021
:1010c000150007000000e00009003a00c1fb2f00f6
:1010d0008f80400020f92f000f0040004f020700d2
:1010e0000000e000020035000805e8005aff370064
:1010f0000080eb004f05be004f04be000080fa00e8
:1011000000000600030278008201780001017800e7
:10111000e16e200040ff3700889fbe008a9fbe001e
:10112000e4c6b300844f5100be00320010003c0002
:101130006b425200844f51001800320005003c0001
:1011400054c2b300844f5100f600320084c5b3008e
:101150000f00370044c6b300844f51001400320022
:1011600065424200844f5100f1003a001000370000
:1011700004c7b300844f5100dd0032005600350033
:1011800065424200844f51005300320063424200e6
:10119000844f5100e6003a004f0037001181e9000a
:1011a00082087800a008900012417800de00370025
:1011b000006a9000c5c6b300854f520007003a0090
:1011c0009102780064825200840878001402be0004
:1011d0004fabde00860378001400370015c7b3005c
:1011e000854f520003003a00110478006802540051
:1011f00005003700a5c6b300854f520006003a002f
:101200009104780068825400840878005403be007a
:101210004402be00050037001182e900840878000e
:1012200014027800cfa2de00612bb9000498be0042
:101230000690be008068900088c6b30088cf50003a
:101240000d00320028c6b30088cf500004003a00d9
:101250000402fb00cfa2de00612bb90008003700ba
:1012600048c7b30088cf50000300320066444400f2
:1012700088cf500004003a00cfa2de00612bb900f5
:101280000498be000690be003002be002003be00df
:10129000a0089000e00f5200e08f5a00e00f5b00c2
:1012a000e08f5b0002003d00d4c2b30008003700ad
:1012b000301290000418a30002003200b4c2b30040
:1012c000030037000408a3005100320004c2b30039
:1012d00084f178004c003700006a9000c5c6b30066
:1012e000854f520008003a0011057800640255004d
:1012f000840878001404be006055b8000802be00df
:101300000a03be001400370015c7b300854f520012
:1013100003003a0091047800688254000500370009
:10132000a5c6b300854f520006003a0011057800ab
:1013300068025500840878005403be004402be00d1
:10134000050037001182e900840878001402780053
:101350008002eb006033b8000498be000690be0027
:101360008068900088c6b30088cf50000d0032001e
:1013700028c6b30088cf500004003a000482fb0066
:101380008002eb006033b8000800370048c7b300a4
:1013900088cf5000030032006644440088cf5000dc
:1013a00004003a008002eb006033b8000498be00ed
:1013b0000690be00b01090000138a3001400320067
:1013c0003002be002003be00e00f5200e08f5a0042
:1013d000e00f5b00e08f5b000d00320081c7b300bf
:1013e000814f51000300320081c5b300814f51008d
:1013f00007003a00a008900004c3b30084f178000d
:101400008100e80082f178008100e800210898005e
:10141000a00890008181410073009800824078000c
:101420003e00370080699000c4c6b3001181e90016
:1014300084cf5100220032000a003c006442520076
:1014400084cf51002500320004c2e80084cf51004f
:10145000130032006842520084cf51001e003a004f
:101460000a00370044c7b30084cf51001b0032008c
:101470006642420084cf5100180032006942520097
:1014800084cf510014003a0005003700820878002c
:101490009200780020609000804878002c0037008f
:1014a000820878009200780010129000cfa2de002f
:1014b000612bb9008498be008690be0024003700de
:1014c000820878009200780010119000cf91de0021
:1014d0008288be001e0037001181e9008208780072
:1014e00092007800101090008008780018003700f3
:1014f0001181e9008208780012027800cfa2de0094
:10150000612bb9000498be000690be00a0089000b0
:10151000818141007300980081c7b300100007006b
:101520000b003700a008900082f178000600370019
:10153000a0089000818141000204e00001003a000f
:1015400052c2b300824978008100e8002108980067
:101550000000eb004f05be004f04be000000060077
:10156000fc874700889fbe008a9fbe008c9fbe00fc
:101570008e1f78000006780080c5b30080cf500031
:101580000a0032007740400080cf50000a0032004d
:101590006940400080cf50000b00320010a52000b1
:1015a00080bf9f00ae0020000a00370002a4200088
:1015b00082bf9f000600370013a5200083bf9f0055
:1015c0008e0020000300370014a5200084bf9f0078
:1015d0000e0120003c02be002c03be000605be002a
:1015e0000404be0040c6b30080cf500003003200a8
:1015f0006540400080cf50000b003a00e00f5200e1
:10160000e08f5a00e00f5b00e08f5b0006003d00ba
:101610006000b8006011b8000404500085845800d0
:101620000605590087855900e80f5700040032006d
:1016300040002000f00f570038003a00010037004a
:1016400030002000e00f5400e08f5c00e00f5d00f0
:10165000e08f5d0004003a008c1090008d012000a6
:101660000100e000060032008e00e9008880600082
:101670008fba9700e5c07800f1ef9f007d01200050
:10168000800078008100e900050033008b05d1005f
:101690000a85d3008984d3000884d300f9ff37007a
:1016a000089ebe000a96be00120037008d06e900b3
:1016b0008e00e900848060000fb99700e2c17800d5
:1016c00082fd2f000f01410003f17e0080007800b1
:1016d0008100e900050033008783d1000683d30031
:1016e0008582d3000482d300f9ff3700049ebe0038
:1016f0000696be003c02be002c03be00e00f520066
:10170000e08f5a00e00f5b00e08f5b008b0034003d
:101710000d00e000e5ff3c00880037000c689000f9
:1017200081c6b300814f50000b00320006003c0020
:101730000004e00008003200e6c05000814f500075
:101740004e003a0004003700c1c6b300814f50007c
:101750004a003a00210037000800e00004003a0087
:101760000c1090008d0120000000e0000600320007
:10177000110009000e84d8000fb99700e2c078006c
:10178000f1ef9f007d012000110009000e84d800b8
:101790000a003700110009000e04d8008d06e90088
:1017a0000e81b900020454008fb8970061417c009b
:1017b00081fd2f008f80400082f07e0000047800c1
:1017c0000800e000020032000d00e000f1ff3c00e4
:1017d000cfc4de00614db90025003700e00f540092
:1017e000e08f5c0004003a000c1090008d01200096
:1017f0000000e000070032006171b9000800be007f
:10180000b50307008fb99700e3417800f3ef9f001d
:101810007d0120006171b9000800be009e03070031
:101820000b0037006171b9000800be008b03070090
:101830008d06e90000f1b900020454000fba9700c8
:10184000e4427c0084fd2f000f02420005f27e007e
:101850000004be00e00f5000e08f5800020032008c
:101860000d00e000efff3c004fcdde008a05780060
:10187000089ebe000a96be0030003700e00f5400fc
:10188000e08f5c00e00f5d00e08f5d0004003a0037
:101890000c1090008d0120000000e00009003200d3
:1018a0006172b900612bb9000800be000a01be00d8
:1018b000320407000fba970064427800f4ef9f00eb
:1018c0007d0120006172b900612bb9000800be00e3
:1018d0000a01be00220407000d0037006172b90042
:1018e000612bb9000800be000a01be0027040700f2
:1018f0008d06e90000f2b900040454008fba970085
:1019000065427c0085fd2f008f82420084f27e00bc
:10191000009ebe000296be003c04be002c05be0028
:10192000e00f5400e08f5c00e00f5d00e08f5d0091
:10193000020034000d00e000e8ff3c00e80f570013
:1019400010003a003c1090000038a3000d00320057
:10195000f78f560006003e0085fd2f008f82420063
:10196000e5c07e0000c3b30080cf50000500320008
:101970008d06e90002c3b30081fd2f008f80400077
:1019800082f07e0078811600420e98007c00900064
:1019900083fd2f008f8141008d804100bdfc070039
:1019a0004c0890008c109000810f500006003d0004
:1019b00000805000300e98003c1090000040a100c4
:1019c000301698000f0037000100e0000d003d00c8
:1019d000bc109000f4806000f08f500009003a00c5
:1019e0002c119000ac089000810051003c0990003f
:1019f00082805000008050004240a9000100340065
:101a0000300e98004f0778004f06be004f05be000d
:101a10004f04be00cf01b100000006000400fa0030
:101a2000889fbe008a9fbe008c1f7800000478004b
:101a300001067800a81490002808900080845400c3
:101a40003808900080845400480890008084540036
:101a500058089000808454006808900080845400e6
:101a600078089000808454000002220090bf9f00fc
:101a700000032300a0bf9f00381090000028a3009f
:101a800015003a000900e000130034000905780051
:101a90008a057800e20f5500010036002b00200077
:101aa000c80190000b017800ee805700680090009c
:101ab00003000100600498000000e000aa0032006a
:101ac000181090000b004000101498000b055500f2
:101ad0004240a900eeff3c00280990000200e0000f
:101ae0000c003400c80190008c0078006800900061
:101af00003000100600498008080eb000000e0001b
:101b00009a00320098109000280890000080400051
:101b100010149800380d90000a00e0001100340005
:101b20008a057800e20f5500010036002b002000e6
:101b3000c80190000b017800ec805700680090000d
:101b400003000100600498000000e00086003200fd
:101b5000181090000b004000101498000b05550061
:101b6000edff370008699000c808900050c6b30028
:101b7000804f510008003a000100e00015003400d9
:101b800058029000080990009809900068009000a1
:101b900004000100070037000100e0000d003400e0
:101ba000c801900001017800f800900068009000e2
:101bb00003000100600498008080eb000000e0005a
:101bc0006a003200981090004808900000804000a1
:101bd00010149800580d90000a00e0001100340025
:101be0008a057800e20f5500010036002b00200026
:101bf000c80190000b017800ec805700680090004d
:101c000003000100600498000000e000560032006c
:101c1000181090000b004000101498000b055500a0
:101c2000edff3700086990006808900051c6b300c6
:101c3000814f51000d003a000000e0001c0034000c
:101c400078019000c8089000010141006111b800be
:101c5000828fd2008381d2005802900080007800e9
:101c60006800900004000100090037000000e00057
:101c70000f00340078019000c808900081004100f6
:101c8000c801900000017800680090000300010086
:101c9000600498008080eb000000e0003300320018
:101ca0009810900068089000008040001014980080
:101cb000780d90000a00e000110034008a057800d9
:101cc000e20f5500010036002b002000c8019000f3
:101cd0000b017800ec8057006800900003000100c1
:101ce000600498000000e0001f003200181090000f
:101cf0000b004000101498000b055500edff370055
:101d0000381090008000eb000028a300170032007c
:101d10000900e0001500340009057800e28f540046
:101d2000010036002a002000c80190000a01780056
:101d3000ee805700680090000300010060049800e6
:101d40000000e00008003200181090000a00400077
:101d5000101498008a8454004240a900eeff3c0011
:101d60008000eb00010037008080eb00010078006c
:101d70004f0678004f05be004f04be000080fa00f9
:101d8000000006000108780000000600e687470012
:101d9000889fbe008a9fbe008c9fbe008e1f780069
:101da00082bf9f0004047800029ab900f4b79f0034
:101db0000400e000590032000fb997000200e00073
:101dc000570032000006be0004077800c8009000eb
:101dd00068009000808f50000400390008007800ef
:101de000910007000000e0003b00350000402000ab
:101df000180060000a0032008e017800a200200066
:101e00000c00be00fa0107000005be00008075004e
:101e1000070032008c0455008904e80005003700f3
:101e20008e0478000a0020000b002000010037001b
:101e30008e04780048019000680090000200500075
:101e4000890f500003003100800478000a00200050
:101e50000b0020006111b800828fd2008381d20074
:101e6000090278000c00be00c401070009075700f2
:101e70004800900009004000400498000a85750061
:101e800004003200080078002c0007000000e00089
:101e900011003a000e00e0000f0032006148b80067
:101ea000808fd2008180d2000000780000f0a10075
:101eb0008c01d0000001d000028641004220a80021
:101ec00081864e004200a9004220ae004200a800d8
:101ed0000c86d300bdff3700008020001800600092
:101ee00002003200080078001400070000c0200043
:101ef0001800600002003200c801900063049800de
:101f00007fb097000e0750000fb99700110009002d
:101f10000287d80080017800010037008001eb00c3
:101f2000030078004f0778004f06be004f05be0043
:101f30004f04be006f00b10000000600889fbe0085
:101f4000000478000800e0000f003a008004eb0075
:101f5000090478008800d00000a320006100780008
:101f60000000e00004003200f4ff07000000e00081
:101f700001003d008084eb000804e800e80f5400f5
:101f8000f4ff3a002500370000002200180060002e
:101f90008004eb0021003200a80490000f003700fd
:101fa00009015100384090000000fb0089007800d2
:101fb000cbfa07000000e00007003c00280090007a
:101fc0004004980060049800500c98001890a000fd
:101fd0008084eb00110037008084440048019000a9
:101fe000828f5400eeff39002800900040049800d2
:101ff0009800780002c020000281600001003a00d1
:102000003800900001e8a30002003200600498004c
:1020100001003700500c98008004eb0009007800a4
:102020004f04be0000000600889fbe008a1f780093
:1020300000047800c8009000680190000000eb00e8
:10204000828f50003c0039001800780022002900df
:1020500002016000e20f5100070032000120200061
:102060000000e0000100350001202400008c700019
:102070000080eb0030003700020026000200600004
:10208000820f500009003a0038009000808f500005
:102090000600390008007800a8ff070080007800db
:1020a0000080eb000100e00023003a0018057800f2
:1020b00000c020000000650018003a00a80490004d
:1020c0006002200008004000808f540013003a0096
:1020d00000202000ef000700200498000000e0002e
:1020e00005003a0029049800490498008904e80092
:1020f00039049800080037000a60a0000a0c780034
:1021000040049800012020008080400031049800a5
:10211000400c9800500c98000c000700280090001c
:1021200050049800380090006004980000002600d9
:10213000180c70000000eb004f0578004f04be0043
:10214000000006008014210061003700881f78001d
:1021500008a820001804e00003003a00f9ff070077
:1021600020c0b300004c78004f0478000000060047
:10217000889fbe0000047800080078006fff070009
:102180008004780000042000180060000200320083
:10219000280090005a0007000000eb00200498007f
:1021a000384090000004e000050035000000fb000e
:1021b00042fa07000000e000010032008084eb00da
:1021c000181090000000e0000800320086fa0700b6
:1021d0000000e000010032008084eb001810900045
:1021e000470007000000eb001014980000082000d2
:1021f00018006000150032000001eb006000b8001c
:1022000003a320000202d00063027a00880f52006c
:1022100005003a0000004000818048000080410035
:102220000008eb000600370061004000e080480035
:102230000201e800e80f5000e08f5800f0ff3a007c
:10224000080078002e0007000e003700000c780010
:1022500000c0eb00304498006002200008004000fd
:10226000200498004004980050049800400c980006
:1022700060049800500c98007004980076004400a8
:10228000000c9800090078004f04be000000060012
:10229000881f78000004eb006140b800e2ff2f00c7
:1022a000f3ff2f000f010700e2a320006200780077
:1022b0000000e00001003200adff07000804e80064
:1022c000e80f5400f4ff3a004f04780000000600c5
:1022d000010020000100e000080032000100800041
:1022e0000100e000050032008100e90001008800e3
:1022f0008100d0000200800000b1780000000600dc
:102300000000e0002f003200c0017800e38f510090
:102310002c0036000308a3002a003a00f153800085
:102320000100e00002003200810f50000400310083
:1023300011009800f05388001600370082007800e2
:10234000110190000200e00002003200800f5100f5
:10235000faff39001102780084824000850f500096
:1023600018003900808f520003003a0083084200b1
:1023700001007800070037000200e000030032008f
:1023800083014000830f51000e00390012009800b5
:1023900090009800900090000100e00009003200d9
:1023a00010014000828f500006003a00c2a72000b2
:1023b0000009eb0010017800110841009100900025
:1023c0001100980000000600889fbe0000047800fd
:1023d000e15380000100e0000200320001007800bb
:1023e0000d003700f1538000e0a720000400370003
:1023f000910f5400250036000180e8009100900004
:102400000100e000faff3a0010003700920f54007c
:102410001e0036000280e800100178000200e00093
:10242000faff3a0011017800f1538000e0a7200084
:1024300004003700910f5400140036000180e800ba
:1024400091009000828f5000faff3a0019548000ea
:10245000888f54000100310088047800090078005a
:10246000360007000000e00004003a00888f5400a6
:10247000050032008904d100f5ff37000918780003
:102480009fff0700d2ff37000000eb004f04be00a3
:1024900000000600881f7800630440000800a100c7
:1024a0008000eb00800f540021003600e30f540041
:1024b00001003e004800200008007800c2ff07002d
:1024c0008000eb000000e00019003200900078006e
:1024d0009101780064815100880f510003003100a0
:1024e00011019000020878000700370008814000c1
:1024f0000208780091019000130198001001780003
:102500001109140088087800100178000000eb0021
:102510000200e00004003200920190000300e0009d
:10252000010032000280e800e05388008180e8006a
:10253000010078004f047800000006008000780059
:102540000000eb000100e00005003400010078000d
:10255000aef90700e10f400001003a000000eb0077
:102560000000060000c0da000000060000c0da002b
:102570000000060000c0da00000006003400f80089
:102580000203be00820270008502720002f0a60003
:1025900000f0a6008100e800a10188001500b2004b
:1025a00008003200105978000402e9000d003200e2
:1025b00061004000fbff39003420ec0000002800df
:1025c000f8ff3700101978000482e9000500320096
:1025d00062004000fbff39003420ec0000002800be
:1025e000f8ff37003400f9000601be0000000600c5
:1025f0000300e00007003200a5018000a10188006f
:1026000010427800a50188000402fb00820f5200ee
:10261000110032008301e900a5018000a1018800ba
:1026200010427800a50188000404e0000800320090
:10263000000278001000b00000026a004260af00a3
:1026400000f0a0000482d2000180b000e8ff370053
:10265000000020000100200000000600839f6800a9
:102660000100e00002003d0060001000e080180062
:102670000300e00002003d0060011100e08119004c
:10268000050007004f00e00002003b006000100062
:10269000e0801800000006006022b800060220005a
:1026a0000000d0008180d2000482d2008582d20056
:1026b0000000a0000202520083825a000300310091
:1026c0000202420083824a000000a1000603e900e2
:1026d000f3ff3a0000000600efff07000400be0011
:1026e00000000600020ab900001bb9000200b80091
:1026f000810042008100430000000600889fbe0068
:102700008a9fbe0030044200b0844a0030054b006e
:1027100090854b006000b1000898be000a90be0092
:102720000440e10005c8e10006d0e10007d8e1005f
:1027300002003100680040001008e8004f05be00ac
:102740004f04be0000000600889fbe008a9fbe00a6
:102750003004be002005be000418540005985c003b
:1027600006185d0007985d00110020000440e1009c
:1027700005c8e10006d0e10007d8e10001003900fa
:102780008000eb00108810004f05be004f04be0013
:10279000000006001200fa00889fbe008a9fbe005b
:1027a0008c9fbe00e0b79f00f1b79f0082bf9f00e3
:1027b00093bf9f000605be000404be000000eb00ae
:1027c000d0b79f00c0b79f00b0b79f00a0b79f00d1
:1027d00090b79f00000678005fb19700cfb09700d8
:1027e000820141003fb097000200e00004003d007c
:1027f000370007007e805700c0ff07000300370046
:10280000330007007e805700cfff0700dfb6970038
:102810000d00e0000c0035006fb29700ffb297008a
:102820000fbb97009fbb9700100020000100200005
:102830006011b8000002720081827200020373000e
:10284000838373001b0007000c06e80001042000ce
:10285000810f5600e0ff3a000d00e00004003d004b
:102860000802be000a03be007e805700a3ff0700d7
:102870005fa897000000e00005003a001fb2970033
:10288000afb297003fb39700cfb39700090007009e
:102890006fb09700ffb097000fb997009fb99700ee
:1028a0004f06be004f05be004f04be000080fa0078
:1028b000000006000100070000000600a4b79f000a
:1028c000b5b79f00c6b79f00d7b79f0000000600ae
:1028d0004f09de0082817100b3b79f004f01de0017
:1028e0008180400082807000a1b79f008fb0970068
:1028f0004f09de00000040000200700090b79f000a
:102900007fa897004f01de00818040008280700028
:1029100081b79f000d0007004f3ade000000400025
:1029200004007000f0af9f0008000700040242009e
:1029300085824a0006034b0087834b00dfff0700b8
:102940000802be000a03be00000006002fb2970076
:10295000bfb297004fb39700dfb3970000000600a7
:10296000881f780018002000881f780089ff070062
:102970008f87e9004f04780000000600801feb00fd
:1029800084ff07008f87e90000000600889fbe00d3
:102990008a9fbe00e00f5000e08f5800e00f590002
:1029a000e08f59000c003d006044b8006055b8004d
:1029b0000000540081805c0002015d0083815d00a5
:1029c000180020001500070008003d00180007004f
:1029d0000004eb00050037000004eb000f000700c7
:1029e00002003d001200070018002000dcff070075
:1029f0000800e000060032006022b8006033b80032
:102a00000000520081805a0002015b0083815b005c
:102a10004f05be004f04be0000000600e00f52004c
:102a2000e08f5a00e00f5b00e08f5b0000000600c3
:102a30006044b8006055b8000402540085825c0010
:102a400006035d0087835d0000000600889fbe00ce
:102a50008a9fbe008c1f7800e00f5000e08f580066
:102a6000e00f5900e08f59000d003d006044b800b0
:102a70006055b8000000540081805c0002015d00d8
:102a800083815d001c0020000820e10009a8e1000e
:102a90000ab0e1000bb8e1000d003d00080037006e
:102aa0000006eb00e00f5200e08f5a00e00f5b00e1
:102ab000e08f5b0006003d006044b8006055b80040
:102ac0000402540085825c0006035d0087835d007c
:102ad000aaff07000c00e000060032006022b800e8
:102ae0006033b8000000520081805a0002015b0090
:102af00083815b004f0678004f05be004f04be0087
:042b000000000600cb
:020000040000fa
:102b04003c680000746d00006c3e00003c680000ee
:102b140065610000643e00003c74000069740000bc
:102b24006c6500003e520000656d00006f7400008b
:102b340065200000436f00006e740000726f000097
:102b44006c200000576900007468000020500000e9
:102b54007573000068200000427500007474000062
:102b64006f6e00003c2f000074690000746c00005c
:102b7400653e00003c2f00006865000061640000b1
:102b84003e3c0000626f0000647900003e3c00009f
:102b9400666f0000726d0000206e0000616d000021
:102ba400653d0000226900006e700000757400002d
:102bb400222000006d650000746800006f6400004e
:102bc4003d22000067650000742200003e3c0000c6
:102bd40074610000626c000065200000616c0000fc
:102be400696700006e3d000022630000656e00000e
:102bf4007465000072220000207700006964000000
:102c0400746800003d2200003530000030220000ce
:102c140020620000676300006f6c00006f720000a8
:102c2400203d0000224c0000696700006874000029
:102c3400477200006179000022200000626f0000ea
:102c440072640000657200003d2200003222000020
:102c54003e3c0000747200003e3c000074640000be
:102c6400206100006c690000676e00003d220000d6
:102c7400636500006e74000065720000222000008d
:102c8400636f00006c730000706100006e3d000013
:102c940022320000223e00003c6600006f6e0000fd
:102ca40074200000736900007a6500003d22000072
:102cb40035220000206300006f6c00006f7200007a
:102cc4003d220000526f0000796100006c42000058
:102cd4006c7500006522000020660000616300003e
:102ce400653d00002276000065720000646100000a
:102cf4006e610000223e00003c6200003e5700006e
:102d0400656200002d4200006173000065640000ec
:102d1400204300006f6e0000747200006f6c0000ae
:102d2400206100006e640000204d00006f6e000002
:102d3400697400006f720000696e0000673c000057
:102d44002f620000723e00003c2f0000666f0000fe
:102d54006e7400003e3c00002f740000643e0000ce
:102d64003c2f0000747200003e3c000074720000ae
:102d74003e3c0000746400002068000065690000a7
:102d840067680000743d000022320000303000000b
:102d940022200000616c0000696700006e3d0000a5
:102da40022630000656e000074650000722200005a
:102db40020620000676300006f6c00006f72000007
:102dc4003d2200004c690000676800007447000061
:102dd40072610000792200003e3c0000696e000030
:102de40070750000742000006e6100006d650000c5
:102df4003d220000544100002220000074790000ac
:102e0400706500003d22000073750000626d0000d3
:102e14006974000022200000766100006c750000d7
:102e2400653d0000225400004f470000474c00005d
:102e340045200000524500004c410000592000008c
:102e4400412200002f3e00003c2f0000746400006b
:102e54003e3c00002f740000723e00003c2f000036
:102e640074610000626c0000653e00003c2f0000ad
:102e7400666f0000726d00003e3c00002f6200008f
:102e84006f640000793e00003c2f0000687400006d
:102e94006d6c00003e000000415400002b52000005
:102ea400535400000d0a000000410000540d0000be
:102eb4000a0000000d0a00004f4b00000d0a00003c
:102ec4000041000054450000300d00000a000000dd
:102ed40041540000453100000d0a0000004100008b
:102ee400542b000052450000535400004f52000080
:102ef400450d00000a000000415400002b4300006f
:102f0400574d00004f440000453d0000310d0000c6
:102f14000a000000415400002b430000574d0000fc
:102f24004f440000453d0000320d00000a0000003f
:102f3400415400002b430000574d00004f44000053
:102f4400453d0000330d00000a000000415400001c
:102f54002b430000574a0000415000003d2200006e
:102f64004e650000737400006f7200005f5700002c
:102f740069660000692200002c2200004b3000002a
:102f84006c6500006c6100004039000034300000c2
:102f9400333100003736000032370000343100008e
:102fa40038380000220d00000a00000057490000d4
:102fb40046490000204300004f4e00004e450000eb
:102fc40043540000454400000d0a00005749000026
:102fd40046490000204700004f54000020490000eb
:102fe400500000000d0a0000415400002b43000073
:102ff40057510000415000000d0a0000004100003c
:10300400542b00004349000046530000520d0000b9
:103014000a00000031390000322e00003136000071
:10302400382e000000410000542b000043490000ea
:10303400504d0000555800003d3000000d0a0000be
:1030440000410000542b000043490000504d000093
:10305400555800003d3100000d0a000000410000f9
:10306400542b000043490000505300004552000017
:1030740056450000523d0000312c0000383000005d
:103084000d0a000000410000542b000043490000d9
:1030940050530000454e0000443d000025750000db
:1030a4002c250000750d00000a00000053450000a7
:1030b4004e440000204f00004b000000415400002b
:1030c4002b43000049500000434c00004f530000c4
:0c30d400453d0000350d00000a00000022
:020000040000fa
:1030e0000000fa000040eb00640007001900070030
:1030f0000004e0001000320010c0b3007d000700a3
:103100000004e0000c003200ca0007000004e000e8
:1031100009003200f09920001f0107000004e000c0
:103120000500320010c0b3008f0107000004e0006a
:1031300001003200d30107000080fa000000060001
:103140000000fa00e0742900990607000080fa00e8
:10315000000006001800fa00881f780000a0260072
:10316000810120001d0707000040eb00430007001d
:103170000040eb00004f78000040eb001047980043
:103180003400070070752900890607007075290052
:10319000af06070000a02600810120000f070700ee
:1031a0000040eb0020479800080037002e409000b8
:1031b0000084fb006004070088004700b0409800ce
:1031c0002e4090000040e800204798005505070079
:1031d0000004a2000004e000030032002e40900032
:1031e000f24f5000f1ff36002e4090000080fb00af
:1031f000000047008040eb0031409800630047002a
:10320000c1752900bcf607000000e0000300320091
:1032100010c0b30010479800040037001e4fe800ac
:103220001e407800e24f5000d5ff36001e4090004f
:103230000080fb0000f0a7000000ea000000ea00a8
:103240004f00de00004078004f0478000080fa0054
:10325000000006000200fa000200370036040700f2
:10326000004f78002f0507000004a2000004e000d2
:10327000faff3a000080fa00000006000200fa009f
:10328000004f78001e4078000004e00005003a007e
:103290003076290046060700307629006c060700c4
:1032a00004003700a0762900410607003076290087
:1032b0006706070000a0260081012000c70607005e
:1032c0000080fa00000006000000fa00e1ff07009d
:1032d0001077290036060700107729005c060700e2
:1032e00000a0260081012000bc0607000080fa0033
:1032f000000006001a00fa00881f7800005f98009e
:103300000040eb00004f78000040eb0010479800b1
:10331000d0ff07000e589000e14f500005003a0022
:10332000e077290022060700e07729004806070019
:103330000f0037000e589000e24f500005003a0091
:10334000c07829001a060700c07829004006070047
:10335000070037000e589000e34f500004003a0079
:10336000a079290012060700a07929003806070075
:1033700000a0260081012000980607000040eb0015
:1033800020479800090037002e4090000084fb0081
:10339000e9030700804078000800470031409800aa
:1033a0002e4090000040e80020479800dd04070010
:1033b0000004a2000004e000030032002e40900050
:1033c000f24f5000f0ff36002e4090000080fb00ce
:1033d000000047008040eb00314098006300470048
:1033e000c175290044f607000000e0000300320028
:1033f00010c0b30010479800040037001e4fe800cb
:103400001e407800e24f5000c1ff36001e40900081
:103410000080fb0000f0a7000000ea000000ea00c6
:103420004f00de00004078004f0478000080fa0072
:10343000000006003600fa00881f78000040eb000c
:10344000004f78000040eb001047980081ff070014
:10345000807a2900d6050700807a2900fc0507003c
:103460000040eb00204798000040eb002047980008
:103470000600370000a02600810120005706070043
:103480002e4090000040e80020479800ae40900099
:1034900010c3b30080cf5000f6ff36000040eb00b1
:1034a00030479800090037003e4090000084fb0040
:1034b000a1030700804078000800470041409800c1
:1034c0003e4090000040e800304798009504070017
:1034d0000004a2000004e00004003200be4090009e
:1034e000a0c3b30080cf5000efff36003e409000f5
:1034f0000080fb00000047008040eb004140980046
:103500000040eb003047980064004700817d2900af
:10351000f9f507000000e0000300320010c0b3001e
:1035200010479800040037001e4fe8001e40780046
:10353000e24f5000c5ff36001e4090000080fb00a7
:1035400000f0a7000000ea000000ea004f00de00e3
:10355000004078004f0478000080fa000000060068
:103560000000fa003bff0700407f2900900507009c
:10357000407f2900b605070000a026008101200039
:103580001606070000a02600810120001306070090
:103590000080fa00000006003200fa00881f780060
:1035a000001f9800e8004700130009008018eb0096
:1035b00000a02600810120000806070000a02600c8
:1035c00081012000050607000040eb00004f780055
:1035d0000040eb00104798001eff070010802900f4
:1035e000730507001080290099050700e0c1b300aa
:1035f000204798000600370000a026008101200027
:10360000f60507002e4090000040e9002047980092
:103610002e4090000004e000f7ff3a000040eb006d
:1036200030479800080037003e4090000084fb00bf
:103630004103070088004700804898003e40900002
:103640000040e80030479800360407000004a2005c
:103650000004e00004003200be40900060c2b300ed
:1036600080cf5000f0ff36003e4090000080fb000d
:10367000000047008040eb000148980068004700c8
:10368000c18029009cf507000000e00028003200fe
:1036900068004700c180290097f5070030079800af
:1036a0000040eb00404798000d0037004e4090006e
:1036b0008080fb00f099200000804000ce40900008
:1036c0008180fb003e019000810041009140780024
:1036d000014878004e4090000040e80040479800c4
:1036e0004e4090000080fb00be0090000080400033
:1036f0009040780020c2b30080cf50000300320019
:103700004e409000ef4f5000e8ff36004e409000d2
:103710008080fb00f0992000008040008040eb009a
:103720000148780010c0b30010479800040037002b
:103730001e4fe8001e407800e24f5000a6ff360002
:103740001e4090000080fb0000f0a7000000ea008f
:103750000000ea004f00de00004078004f047800cf
:103760000080fa00000006001a00fa00881f7800a6
:10377000005f980030c0b300004f78000040eb00bd
:1037800010479800b3fe07000e5890000004e000b8
:1037900005003a00508129000505070050812900e5
:1037a0002b050700070037000e589000e14f50002e
:1037b00004003a00308229000a05070030822900ff
:1037c0001505070000a026008101200083050700e1
:1037d0000040eb0020479800080037002e40900082
:1037e0000084fb00d402070088004700b040980026
:1037f0002e4090000040e80020479800c9030700d1
:103800000004a2000004e000030032002e409000fb
:10381000f24f5000f1ff36002e4090000080fb0078
:10382000000047008040eb003140980063004700f3
:10383000c175290030f507000000e00003003200e8
:1038400010c0b30010479800040037001e4fe90075
:103850001e4078000004e000caff3a001e409000bd
:103860000080fb0000f0a7000000ea000000ea0072
:103870004f00de00004078004f0478000080fa001e
:10388000000006001800fa00881f780030c0b3005e
:10389000004f78000040eb00104798006dfe0700d5
:1038a00010832900c204070010832900e8040700e0
:1038b00000a0260081012000480507000040eb0021
:1038c00020479800080037002e4090000084fb003d
:1038d0009902070088004700b04098002e409000f1
:1038e0000040e800204798008e0307000004a20073
:1038f0000004e000030032002e409000f24f500020
:10390000f1ff36002e4090000080fb0000004700d1
:103910008040eb003140980063004700c1752900ea
:10392000f5f407000000e0000300320010c0b3000f
:1039300010479800040037001e4fe9001e40780031
:103940000004e000d5ff3a001e4090000080fb001c
:1039500000f0a7000000ea000000ea004f00de00cf
:10396000004078004f0478000080fa000000060054
:103970008200fa00881f7800703f98000187980045
:103980007e389000d6f407001007980065004700c5
:103990009e009000811f78008e809000811f78002b
:1039a00051842900811f7800fcf40700e687570046
:1039b00028fe0700650047007d04070065004700fa
:1039c000a304070000a026008101200003050700d2
:1039d00000a0260081012000000507000040eb0048
:1039e000004f7800060037001e84fb0052020700db
:1039f0008040780008004700115898001e4fe800ea
:103a0000480307000004a2000004e00004003200a4
:103a100020c6b3009e40780080cf5000f2ff3600f1
:103a20000040eb00404798001e80fb00000047006c
:103a30008040eb001158980079004700e103200016
:103a40009bf407000000e0003600320001fe070092
:103a50007e389000560407007e3890007c040700f2
:103a600000a0260081012000dc04070000a0260041
:103a700081012000d90407000040eb0010479800a6
:103a8000090037001e4090000084fb002a02070056
:103a90008040780008004700115898001e409000b0
:103aa0000040e800104798001e0307000004a20031
:103ab0000004e000040032009e40900060c2b300a9
:103ac00080cf5000efff36001e4090000080fb00ca
:103ad000000047008040eb00115898007900470033
:103ae0008185290084f407000000e0000d00320009
:103af00065004700020120000186290065f40700e7
:103b0000d4fd0700650047002904070000a0260037
:103b100081012000b104070000a0260081012000df
:103b2000ae0407004f0478000080fa000000060091
:103b30000800fa00881f7800fa0207000004a200bb
:103b40000004e00037003200fb0107001047980036
:103b50009e409000b0c2b30080cf500030003a00c9
:103b60000040eb00004f7800060037001e84fb0089
:103b7000f1010700804078000800470031409800bc
:103b80001e4fe8001e407800e24f5000f7ff36005d
:103b90000040eb0060479800be40900090c4b30026
:103ba00080cf50001f003a00ce40900000c5b30007
:103bb00080cf50001b003a00de40900040c4b300ac
:103bc00080cf500017003a0000a02600810120009d
:103bd0008204070000a02600810120007f04070066
:103be000d501070010479800d3010700204798002f
:103bf000ae40900000cdb30000c0400020479800c8
:103c00002e4090008080fb00b04d800058ff0700e0
:103c100000a0260081012000700407000100370089
:103c2000000000004f0478000080fa000000060049
:103c30000000fa009580a9009560a900800020008e
:103c4000001188002222ef0020022000401188008d
:103c500070932000a049880070932000904988004c
:103c60008095200080498800809520007049880058
:103c70003669ef0040e621000700070020e8210038
:103c8000140007009560a80021e2a8002342a800c4
:103c90000080fa00000006000200fa00000f780021
:103ca0001e0078000000e00003003a0040e621001a
:103cb000d04b8800020037009e007800d14b88006e
:103cc0000080fa00000006000000fa000080fa0000
:103cd000000006000200fa00000f78001e007800c5
:103ce0000000e00003003a0020e82100e04b8800db
:103cf000020037009e007800e14b88000080fa0047
:103d0000000006000000fa000080fa000000060033
:103d10000200fa000040eb00004f780000000000b5
:103d20008149800070498000808f5000fcff320084
:103d300080498000104f7800804980000000e80032
:103d4000804988008149800090972000808f500032
:103d500002003a0080952000804988001e407800cb
:103d60000080fa00000006000200fa00004f780010
:103d7000000000001c0007000004a2000004e00096
:103d8000fcff3a00904980001e487800904980006e
:103d90000000e8009049880091498000809520004b
:103da000808f500002003a007093200090498800f4
:103db0009580a8000080fa00000006000000fa00cc
:103dc00081498000704980000080680000f0a700f1
:103dd0000000ea000000ea004f00de00004078002a
:103de0000080fa00000006000400fa00a1498000eb
:103df00011079800914980001e009000808f5000ac
:103e0000060031009e009000904980000080500024
:103e10000000e900000f7800050037009e009000c8
:103e200090498000008050000002b000000f780030
:103e30001e00780000f0a7000000ea000000ea0081
:103e40004f00de00004078000080fa00000006000d
:103e50000000fa0091498000a0498000808f500046
:103e600009003a001111800000102000008060005d
:103e700000f0a7000000ea000000ea004f00de00aa
:103e800000407800010037000040eb000080fa009d
:103e9000000006000400fa00714980001107980034
:103ea000804980009e009000808f50000600310005
:103eb0009e00900080498000008050001002b000f9
:103ec000000f7800040037009e00900080498000b9
:103ed00000805000000f7800f00f20009e00780056
:103ee000808f50000200360000c0eb000200370057
:103ef0001e007800004078000080fa0000000600f4
:103f00000400fa00a149800011079800914980003f
:103f10001e009000808f5000060031009e0090002f
:103f200090498000008050000000e900000f7800f8
:103f3000050037009e0090009049800000805000ee
:103f40000002b000000f7800f00f20009e00780003
:103f5000808f50000200360000c0eb0002003700e6
:103f60001e007800004078000080fa000000060083
:103f70000800fa002007980031079800c5ff0700e5
:103f80000080fb00000f78003e0090009e0f500064
:103f900002003100be009000010f78000000eb002d
:103fa000100798000900370059ff0700ae00900085
:103fb000804878002e0090000000e800200798005c
:103fc0001e0090000000e800100798001e009000fe
:103fd0009e0f5000f4ff39001e0078000080fa00a8
:103fe000000006000800fa0020079800310798003a
:103ff000c3ff07000080fb00000f78003e00900028
:104000009e0f500002003100be009000010f7800aa
:104010000000eb0010079800090037002e00900008
:1040200010407800ae0090008100e8002107980061
:104030004dff07001e0090000000e80010079800e8
:104040001e0090009e0f5000f4ff39001e00780003
:104050000080fa00000006000400fa000000eb00f7
:10406000000f78008bff070020479800a4ff07008f
:10407000304798002e4090000080fb000000e000d8
:104080000400320011022000810f500003003200b2
:10409000040037001e20a000040037001e00a0000e
:1040a000020037001e10a000000000003e409000fb
:1040b0000080fb000000e00004003200110220003c
:1040c000810f500003003200040037001e30a000b2
:1040d000020037001e40a000000000001e00780013
:1040e0000080fa00000006000400fa0010079800a3
:1040f000814980001e009000008f400002003700c0
:10410000f1fd2f001e8f4000909720009e00780048
:10411000808f5000faff3e001e00780010407800ab
:104120000080fa00000006000000fa0059ff0700b6
:104130000080fb000000e9004f00de000040780036
:104140000080fa00000006000000fa006cff070083
:104150000080fb000000e9004f00de000040780016
:104160000080fa00000006000000fa001011800034
:104170000080fa00000006000000fa0060ff07005f
:104180000004e00010003200a14980009049800046
:10419000808f500006003600a04980008000780023
:1041a00090498000008050000000e90007003700bf
:1041b000a049800080007800904980000080500075
:1041c0000002b000010037000000eb000080fa00a0
:1041d000000006000000fa002eff07000004e000c7
:1041e000100032008149800070498000808f5000ab
:1041f0000600360080498000800078007049800009
:10420000008050000000e90007003700804980006e
:104210008000780070498000008050000002b000eb
:10422000010037000000eb000080fa0000000600eb
:104230000000fa0021e2a8002342a8000080fa0052
:10424000000006000000fa0021e2a9002342a900b4
:104250000080fa00000006000000fa0097e0a900c4
:1042600097c0a90080002000801188003222ef0052
:1042700020022000c011880090802000304088007b
:104280009080200020408800a082200010408800fc
:10429000a0822000004088000868ef0080172200fc
:1042a00007000700601922001400070097c0a8004b
:1042b00031e2a8003342a8000080fa0000000600a6
:1042c0000200fa00000f78001e0078000000e000f5
:1042d00003003a008017220050498800020037008e
:1042e0009e007800514988000080fa000000060016
:1042f0000000fa000080fa00000006000200fa0048
:10430000000f78001e0078000000e00003003a0073
:104310006019220060498800020037009e00780082
:10432000614988000080fa00000006000000fa00e1
:104330000080fa00000006000200fa000040eb00d6
:10434000004f780000000000114080000040800015
:10435000808f5000fcff320010408000104f78002a
:10436000104080000000e8001040880011408000ec
:10437000a0922000808f500002003a00a08220000e
:10438000104088001e4078000080fa0000000600ff
:104390000200fa00004f7800000000001c00070037
:1043a0000004a2000004e000fcff3a00204080006e
:1043b0001e487800204080000000e800204088006f
:1043c00021408000a0822000808f500002003a002f
:1043d000908020002040880097e0a8000080fa002c
:1043e000000006000000fa0011408000004080003c
:1043f0000080680000f0a7000000ea000000ea006a
:104400004f00de00004078000080fa000000060047
:104410000400fa003140800011079800214080001c
:104420001e009000808f5000060031009e0090001a
:1044300020408000008050000000e900000f78005c
:10444000050037009e009000204080000080500052
:104450000002b000000f78001e00780000f0a700f6
:104460000000ea000000ea004f00de000040780093
:104470000080fa00000006000000fa0021408000e1
:1044800030408000808f500009003a009111800078
:10449000001020000080600000f0a7000000ea008b
:1044a0000000ea004f00de00004078000100370005
:1044b0000040eb000080fa00000006000400fa0053
:1044c0000140800011079800104080009e0090007d
:1044d000808f5000060031009e0090001040800048
:1044e000008050000010b000000f7800040037007a
:1044f0009e0090001040800000805000000f780067
:10450000f00f20009e007800808f500002003600df
:1045100000c0eb00020037001e0078000040780069
:104520000080fa00000006000400fa00314080001c
:1045300011079800214080001e009000808f5000dd
:10454000060031009e009000204080000080500056
:104550000000e900000f7800050037009e00900081
:1045600020408000008050000002b000000f780062
:10457000f00f20009e007800808f5000020036006f
:1045800000c0eb00020037001e00780000407800f9
:104590000080fa00000006000800fa0020079800da
:1045a00031079800c5ff07000080fb00000f78006e
:1045b0003e0090009e0f500002003100be009000af
:1045c000010f78000000eb00100798000900370089
:1045d00059ff0700ae009000804878002e00900040
:1045e0000000e800200798001e0090000000e8008e
:1045f000100798001e0090009e0f5000f4ff390035
:104600001e0078000080fa00000006000800fa0092
:104610002007980031079800c3ff07000080fb00c7
:10462000000f78003e0090009e0f50000200310005
:10463000be009000010f78000000eb00100798000a
:10464000090037002e00900010407800ae00900066
:104650008100e800210798004dff07001e00900030
:104660000000e800100798001e0090009e0f500008
:10467000f4ff39001e0078000080fa0000000600f8
:104680000400fa000000eb00000f78008bff070029
:1046900020479800a4ff0700304798002e40900064
:1046a0000080fb000000e00002003a001e20a00095
:1046b000020037001e10a000000000003e409000e5
:1046c0000080fb000000e00002003a001e30a00065
:1046d00001003700000000001e0078000080fa0092
:1046e000000006000400fa00100798001140800046
:1046f0001e009000008f40000200370001f02f00e4
:104700001e8f4000a09220009e007800808f5000f5
:10471000faff3e001e007800104078000080fa008a
:10472000000006000000fa0064ff07000080fb00a4
:104730000000e9004f00de00004078000080fa0031
:10474000000006000000fa0077ff07000080fb0071
:104750000000e9004f00de00004078000080fa0011
:10476000000006000000fa00901180000080fa00ae
:10477000000006000000fa006bff07000004e000e4
:10478000100032003140800020408000808f5000b7
:104790000600360030408000800078002040800015
:1047a000008050000000e900070037003040800022
:1047b0008000780020408000008050000002b0009f
:1047c000010037000000eb000080fa000000060046
:1047d0000000fa0039ff07000004e000100032007a
:1047e0001140800000408000808f5000060036009d
:1047f0001040800080007800004080000080500061
:104800000000e900070037001040800080007800b9
:104810000040800000805000f00fb0000100370021
:104820000000eb000080fa00000006000000fa0023
:1048300031e2a8003342a8000080fa000000060020
:104840000000fa0031e2a9003342a9000080fa001a
:04485000000006005e
:020000040000fa
:10485400b40900000200000002000000ffff000095
:104864007e09000020000000000000000008000095
:104874002e010000000000002e090000500000007e
:1048840000000000b0090000040000000000000067
:104894009e0900001200000000000000b60900009c
:1048a400020000000200000082950000620a00007d
:1048b4001a00000002000000686a6c00747a4c0060
:1048c40000000100000200000400080000100000c5
:1048d400000020002b2d230030000000400a0000bf
:1048e4002200000002000000303132003334350071
:1048f4003637380039414200434445004600300011
:1049040031323300343536003738390061626300a0
:104914006465660000000000b8090000880000001b
:10492400020000000100000000de0900df09de00d3
:1049340009de0900de09de0009ce090000000000de
:104944000000000000000000000000000000000063
:104954000000000000000000000208000101060041
:104964000a070a00060a06000a060a00060af600f2
:10497400090000000000000000000000000000002a
:104984000000000000000000000000000000020021
:10499400080202002e0a2f000a2e0a002e0a2e00f8
:1049a4000a2e0a001e0a0000000000000000000099
:1049b40000000000000000000000000000000000f3
:1049c40000000000b809e00009080a000000000027
:1049d400000000000000000000000000800a000049
:1049e4000200000000000000820a00000200000033
:1049f40002000000040000007c0a00000400000023
:104a040000000000840a0000020000000200000010
:104a140001000000860a00000200000000000000ff
:044a2400000000008e
:020000040000fa
:104a28000000fa000021ef0030422f001008880033
:104a38000003280020088800804d80000000e00066
:104a480002003a00005622002a0007008460a900ec
:104a58009460a800b269ef000080fa000000060028
:104a68000200fa00000f78009e0078001108880004
:104a7800b269ef000080fa00000006000000fa00aa
:104a8800100880000080fa00000006000200fa000a
:104a9800000f78009e00780001088800b269ef00d6
:104aa8000080fa00000006000000fa0000088000fc
:104ab8000080fa00000006000000fa00601680007e
:104ac8004800de00614060000004a2006140600010
:104ad8000080fb00610060004800dd006116800076
:104ae8000180a10001007000601688000080fa00b3
:104af800000006000200fa00000f78009460a90088
:104b08009e007800814d88009460a8000080fa001b
:104b1800000006000000fa00b269ef009460a800e7
:104b280005e1a8000080fa00000006000000fa0075
:104b380005e1a9009460a9000080fa0000000600c1
:104b48000200fa00219b200091407800014f780074
:104b58001e4078000004e00001003200b269ef0056
:104b68001e4078000080fa00000006000000fa00ed
:104b7800b3c9bf000080fb000080fa0000000600f7
:104b88000000fa00b369ef000080fa000000060098
:104b98000000fa00a90007004ff90700abf9070069
:104ba800e1fb0700feff37000200fa00000f780063
:104bb800040037001e007800104078001e0fe8003f
:104bc800f1fd07001e007800104078000004e000a6
:104bd800f8ff3a000080fa00000006000200fa0020
:104be800000f7800040037001e007800104078009d
:104bf8001e0fe800e4fd07001e0078001040780052
:104c08000004e000f8ff3a000080fa000000060007
:104c18000200fa00000f7800050037001e00780037
:104c2800104078000000fb001e0fe8004cfc070055
:104c38001e007800104078000004e000f7ff3a00fa
:104c48000080fa00000006000200fa00000f780059
:104c5800050037001e007800104078000000fb00b7
:104c68001e0fe8003efc07001e0078001040780088
:104c78000004e000f7ff3a000080fa000000060098
:104c88000000fa0021068000f08f2f0000806000ed
:104c98000080a0002006880091058000f0ff280011
:104ca8000080600000c0a000900588009105800089
:104cb800f08f2f00008060000080a0009005880021
:104cc80021068000f0f82f00008060000040a0005e
:104cd800200688005105800080ff2f0000806000ba
:104ce8000000a0005005880041058000f0ff280062
:104cf8000080600000c0a0004005880021058000f9
:104d0800f0ff28000080600000c0a0002005880097
:104d18000080fa00000006000000fa0000002300ee
:104d2800203a88004827ef004e27ef007027ef0051
:104d38007227ef007427ef007627ef00120020009b
:104d480080072000a10920003374200080497800e2
:104d580081497800824978000001eb006004200056
:104d6800710520002374200080497800814978006b
:104d7800824978000080fa00000006000000fa006e
:104d8800c422ef0010082000601688007000200080
:104d98000016880060202f00401688005620ef007b
:104da8005820ef005a20ef006e20ef007020ef002f
:104db8007220ef00c622ef00ce22ef00c0002000d4
:104dc8000027880000002f00102788000080fa00c4
:044dd80000000600d1
:020000040000fa
:104ddc00f03fb1000180b10006003500ee03090080
:104dec0000000000403fb1000180b100fbff3d001e
:104dfc001000b000203fb000020035000080090018
:084e0c00000000000000060098
:020000040000fa
:104e14000200fa00000f78009e007800a14d88007f
:104e2400ffff37000000fa00e097200080077800b9
:104e340060992000000188000080fa00000006004c
:104e44000000fa00ceff0700b4ff07008dff070043
:104e540000fd070075fb0700f2fe07000080fa0062
:044e64000000060044
:020000040000fa
:0200000401f009
:04000000ffffff00ff
:020000040000fa
:0200000401f009
:04000800ffffff00f7
:020000040000fa
:0200000401f009
:04000c00f9ff0000f8
:020000040000fa
:0200000401f009
:04001000bbff000032
:020000040000fa
:0200000401f009
:040014005fff00008a
:020000040000fa
:0200000401f009
:04001800ffff0000e6
:020000040000fa
:0200000401f009
:04001c00feff0000e3
:020000040000fa
:0200000401f009
:04002000ffff0000de
:00000001FF
